{
  "contractName": "SimpleContract",
  "abi": [
    {
      "inputs": [],
      "payable": false,
      "stateMutability": "nonpayable",
      "type": "constructor"
    },
    {
      "constant": true,
      "inputs": [],
      "name": "contractOwner",
      "outputs": [
        {
          "internalType": "address",
          "name": "",
          "type": "address"
        }
      ],
      "payable": false,
      "stateMutability": "view",
      "type": "function"
    },
    {
      "constant": false,
      "inputs": [],
      "name": "sendMoneyToContract",
      "outputs": [],
      "payable": true,
      "stateMutability": "payable",
      "type": "function"
    },
    {
      "constant": false,
      "inputs": [
        {
          "internalType": "address payable",
          "name": "_to",
          "type": "address"
        }
      ],
      "name": "withdrawAll",
      "outputs": [],
      "payable": false,
      "stateMutability": "nonpayable",
      "type": "function"
    }
  ],
  "bytecode": "0x608060405234801561001057600080fd5b50336000806101000a81548173ffffffffffffffffffffffffffffffffffffffff021916908373ffffffffffffffffffffffffffffffffffffffff1602179055506101ea806100606000396000f3fe6080604052600436106100345760003560e01c80638aecbc5114610039578063ce606ee014610043578063fa09e6301461009a575b600080fd5b6100416100eb565b005b34801561004f57600080fd5b506100586100ed565b604051808273ffffffffffffffffffffffffffffffffffffffff1673ffffffffffffffffffffffffffffffffffffffff16815260200191505060405180910390f35b3480156100a657600080fd5b506100e9600480360360208110156100bd57600080fd5b81019080803573ffffffffffffffffffffffffffffffffffffffff169060200190929190505050610112565b005b565b6000809054906101000a900473ffffffffffffffffffffffffffffffffffffffff1681565b8073ffffffffffffffffffffffffffffffffffffffff166000809054906101000a900473ffffffffffffffffffffffffffffffffffffffff1673ffffffffffffffffffffffffffffffffffffffff161461016b57600080fd5b8073ffffffffffffffffffffffffffffffffffffffff166108fc479081150290604051600060405180830381858888f193505050501580156101b1573d6000803e3d6000fd5b505056fea265627a7a723158203689f11fcdc756677cc20c7aa095a576a317b09791b44d2c10732be85c5b006564736f6c63430005100032",
  "source": "pragma solidity 0.5.16;\n\n// Store a single data point and allow fetching/updating of that datapoint\ncontract SimpleContract {\n\n\n    // owner of this contract\n    address public contractOwner;\n\n    // constructor is called during contract deployment\n    constructor() public{\n        // assign the address that is creating\n        // the transaction for deploying contract\n        contractOwner = msg.sender;\n    }\n\n    function sendMoneyToContract() public payable {}\n\n    function withdrawAll(address payable _to) public {\n        require(contractOwner == _to);\n        _to.transfer(address(this).balance);\n    }\n}\n\n",
  "sourcePath": "/home/ubuntu/simplecontract/contracts/SimpleContract.sol",
  "compiler": {
    "name": "solc",
    "version": "0.5.16+commit.9c3226ce.Emscripten.clang"
  },
  "schemaVersion": "3.2.3",
  "updatedAt": "2022-12-26T03:36:27.400Z",
  "networkType": "ethereum",
  "devdoc": {
    "methods": {}
  },
  "userdoc": {
    "methods": {}
  }
}